{
  "_format": "hh-sol-artifact-1",
  "contractName": "DAO",
  "sourceName": "contracts/DAO.sol",
  "abi": [
    {
      "inputs": [],
      "name": "VOTING_PERIOD",
      "outputs": [
        {
          "internalType": "uint256",
          "name": "",
          "type": "uint256"
        }
      ],
      "stateMutability": "view",
      "type": "function"
    },
    {
      "inputs": [],
      "name": "becomeMember",
      "outputs": [],
      "stateMutability": "payable",
      "type": "function"
    },
    {
      "inputs": [
        {
          "internalType": "contract NftMarketplace",
          "name": "marketplace",
          "type": "address"
        },
        {
          "internalType": "address",
          "name": "nftContract",
          "type": "address"
        },
        {
          "internalType": "uint256",
          "name": "nftId",
          "type": "uint256"
        },
        {
          "internalType": "uint256",
          "name": "maxPrice",
          "type": "uint256"
        }
      ],
      "name": "buyFromNftMarketplace",
      "outputs": [],
      "stateMutability": "nonpayable",
      "type": "function"
    },
    {
      "inputs": [
        {
          "internalType": "uint256",
          "name": "proposalId",
          "type": "uint256"
        },
        {
          "internalType": "bool",
          "name": "support",
          "type": "bool"
        }
      ],
      "name": "castVote",
      "outputs": [],
      "stateMutability": "nonpayable",
      "type": "function"
    },
    {
      "inputs": [
        {
          "internalType": "address",
          "name": "to",
          "type": "address"
        }
      ],
      "name": "delegate",
      "outputs": [],
      "stateMutability": "nonpayable",
      "type": "function"
    },
    {
      "inputs": [
        {
          "internalType": "address[]",
          "name": "targets",
          "type": "address[]"
        },
        {
          "internalType": "uint256[]",
          "name": "values",
          "type": "uint256[]"
        },
        {
          "internalType": "bytes[]",
          "name": "calldatas",
          "type": "bytes[]"
        },
        {
          "internalType": "bytes32",
          "name": "descriptionHash",
          "type": "bytes32"
        }
      ],
      "name": "execute",
      "outputs": [
        {
          "internalType": "uint256",
          "name": "",
          "type": "uint256"
        }
      ],
      "stateMutability": "nonpayable",
      "type": "function"
    },
    {
      "inputs": [
        {
          "internalType": "address",
          "name": "_addr",
          "type": "address"
        }
      ],
      "name": "getDelegatee",
      "outputs": [
        {
          "internalType": "address",
          "name": "",
          "type": "address"
        }
      ],
      "stateMutability": "view",
      "type": "function"
    },
    {
      "inputs": [
        {
          "internalType": "uint256",
          "name": "x",
          "type": "uint256"
        }
      ],
      "name": "getProposal",
      "outputs": [
        {
          "components": [
            {
              "internalType": "uint256",
              "name": "id",
              "type": "uint256"
            },
            {
              "internalType": "uint256",
              "name": "startTime",
              "type": "uint256"
            },
            {
              "internalType": "uint256",
              "name": "endTime",
              "type": "uint256"
            },
            {
              "internalType": "uint256",
              "name": "forVotes",
              "type": "uint256"
            },
            {
              "internalType": "uint256",
              "name": "againstVotes",
              "type": "uint256"
            },
            {
              "internalType": "address",
              "name": "proposer",
              "type": "address"
            },
            {
              "internalType": "bool",
              "name": "executed",
              "type": "bool"
            }
          ],
          "internalType": "struct DAO.Proposal",
          "name": "",
          "type": "tuple"
        }
      ],
      "stateMutability": "view",
      "type": "function"
    },
    {
      "inputs": [
        {
          "internalType": "address",
          "name": "addr",
          "type": "address"
        },
        {
          "internalType": "uint256",
          "name": "x",
          "type": "uint256"
        }
      ],
      "name": "getReceipt",
      "outputs": [
        {
          "components": [
            {
              "internalType": "bool",
              "name": "hasVoted",
              "type": "bool"
            }
          ],
          "internalType": "struct DAO.Receipt",
          "name": "",
          "type": "tuple"
        }
      ],
      "stateMutability": "view",
      "type": "function"
    },
    {
      "inputs": [
        {
          "internalType": "address",
          "name": "_addr",
          "type": "address"
        }
      ],
      "name": "getVotingPower",
      "outputs": [
        {
          "internalType": "uint256",
          "name": "",
          "type": "uint256"
        }
      ],
      "stateMutability": "view",
      "type": "function"
    },
    {
      "inputs": [
        {
          "internalType": "address[]",
          "name": "targets",
          "type": "address[]"
        },
        {
          "internalType": "uint256[]",
          "name": "values",
          "type": "uint256[]"
        },
        {
          "internalType": "bytes[]",
          "name": "calldatas",
          "type": "bytes[]"
        },
        {
          "internalType": "bytes32",
          "name": "descriptionHash",
          "type": "bytes32"
        }
      ],
      "name": "hashProposal",
      "outputs": [
        {
          "internalType": "uint256",
          "name": "",
          "type": "uint256"
        }
      ],
      "stateMutability": "pure",
      "type": "function"
    },
    {
      "inputs": [
        {
          "internalType": "uint256",
          "name": "",
          "type": "uint256"
        }
      ],
      "name": "members",
      "outputs": [
        {
          "internalType": "address",
          "name": "",
          "type": "address"
        }
      ],
      "stateMutability": "view",
      "type": "function"
    },
    {
      "inputs": [
        {
          "internalType": "uint256",
          "name": "",
          "type": "uint256"
        }
      ],
      "name": "proposals",
      "outputs": [
        {
          "internalType": "uint256",
          "name": "id",
          "type": "uint256"
        },
        {
          "internalType": "uint256",
          "name": "startTime",
          "type": "uint256"
        },
        {
          "internalType": "uint256",
          "name": "endTime",
          "type": "uint256"
        },
        {
          "internalType": "uint256",
          "name": "forVotes",
          "type": "uint256"
        },
        {
          "internalType": "uint256",
          "name": "againstVotes",
          "type": "uint256"
        },
        {
          "internalType": "address",
          "name": "proposer",
          "type": "address"
        },
        {
          "internalType": "bool",
          "name": "executed",
          "type": "bool"
        }
      ],
      "stateMutability": "view",
      "type": "function"
    },
    {
      "inputs": [
        {
          "internalType": "address[]",
          "name": "targets",
          "type": "address[]"
        },
        {
          "internalType": "uint256[]",
          "name": "values",
          "type": "uint256[]"
        },
        {
          "internalType": "bytes[]",
          "name": "calldatas",
          "type": "bytes[]"
        },
        {
          "internalType": "bytes32",
          "name": "descriptionHash",
          "type": "bytes32"
        }
      ],
      "name": "propose",
      "outputs": [
        {
          "internalType": "uint256",
          "name": "",
          "type": "uint256"
        }
      ],
      "stateMutability": "nonpayable",
      "type": "function"
    },
    {
      "inputs": [],
      "name": "quorumVotes",
      "outputs": [
        {
          "internalType": "uint256",
          "name": "",
          "type": "uint256"
        }
      ],
      "stateMutability": "view",
      "type": "function"
    },
    {
      "inputs": [
        {
          "internalType": "uint256",
          "name": "proposalId",
          "type": "uint256"
        }
      ],
      "name": "state",
      "outputs": [
        {
          "internalType": "enum DAO.ProposalState",
          "name": "",
          "type": "uint8"
        }
      ],
      "stateMutability": "view",
      "type": "function"
    },
    {
      "inputs": [],
      "name": "undoDelegate",
      "outputs": [],
      "stateMutability": "nonpayable",
      "type": "function"
    }
  ],
  "bytecode": "0x608060405234801561001057600080fd5b50613115806100206000396000f3fe6080604052600436106100fe5760003560e01c80637b8873e011610095578063b1610d7e11610064578063b1610d7e1461033e578063bae1888014610369578063bb4d4436146103a6578063c59057e4146103e3578063c7f758a814610420576100fe565b80637b8873e0146102915780639b4e735f146102ba5780639d083222146102f75780639efad40d14610301576100fe565b80633bea615d116100d15780633bea615d146101d75780633e4f49e6146101ee5780635c19a95c1461022b5780635daf08ca14610254576100fe565b8063013cf08b1461010357806315373e3d1461014657806324bc1a641461016f5780632656227d1461019a575b600080fd5b34801561010f57600080fd5b5061012a60048036038101906101259190612135565b61045d565b60405161013d9796959493929190612b20565b60405180910390f35b34801561015257600080fd5b5061016d60048036038101906101689190612187565b6104cc565b005b34801561017b57600080fd5b506101846105e9565b6040516101919190612b05565b60405180910390f35b3480156101a657600080fd5b506101c160048036038101906101bc9190612027565b61060e565b6040516101ce9190612b05565b60405180910390f35b3480156101e357600080fd5b506101ec6107e8565b005b3480156101fa57600080fd5b5061021560048036038101906102109190612135565b610b38565b60405161022291906128f2565b60405180910390f35b34801561023757600080fd5b50610252600480360381019061024d9190611fc2565b610bd0565b005b34801561026057600080fd5b5061027b60048036038101906102769190612135565b611026565b6040516102889190612854565b60405180910390f35b34801561029d57600080fd5b506102b860048036038101906102b391906120d2565b611065565b005b3480156102c657600080fd5b506102e160048036038101906102dc9190611fc2565b611283565b6040516102ee9190612854565b60405180910390f35b6102ff6112ec565b005b34801561030d57600080fd5b5061032860048036038101906103239190612027565b6114c5565b6040516103359190612b05565b60405180910390f35b34801561034a57600080fd5b506103536116cf565b6040516103609190612b05565b60405180910390f35b34801561037557600080fd5b50610390600480360381019061038b9190611feb565b6116d6565b60405161039d9190612aea565b60405180910390f35b3480156103b257600080fd5b506103cd60048036038101906103c89190611fc2565b61175c565b6040516103da9190612b05565b60405180910390f35b3480156103ef57600080fd5b5061040a60048036038101906104059190612027565b6117a5565b6040516104179190612b05565b60405180910390f35b34801561042c57600080fd5b5061044760048036038101906104429190612135565b6117e1565b6040516104549190612acf565b60405180910390f35b60016020528060005260406000206000915090508060000154908060010154908060020154908060030154908060040154908060050160009054906101000a900473ffffffffffffffffffffffffffffffffffffffff16908060050160149054906101000a900460ff16905087565b600360003373ffffffffffffffffffffffffffffffffffffffff1673ffffffffffffffffffffffffffffffffffffffff16815260200190815260200160002060009054906101000a900460ff16610558576040517f08c379a000000000000000000000000000000000000000000000000000000000815260040161054f9061298f565b60405180910390fd5b6000600560003373ffffffffffffffffffffffffffffffffffffffff1673ffffffffffffffffffffffffffffffffffffffff16815260200190815260200160002054116105da576040517f08c379a00000000000000000000000000000000000000000000000000000000081526004016105d190612a4f565b60405180910390fd5b6105e53383836118b1565b5050565b6000606460008054905060196105ff9190612de9565b6106099190612db8565b905090565b6000600360003373ffffffffffffffffffffffffffffffffffffffff1673ffffffffffffffffffffffffffffffffffffffff16815260200190815260200160002060009054906101000a900460ff1661069c576040517f08c379a00000000000000000000000000000000000000000000000000000000081526004016106939061298f565b60405180910390fd5b60006106aa868686866117a5565b905060006106b782610b38565b9050600260038111156106f3577f4e487b7100000000000000000000000000000000000000000000000000000000600052602160045260246000fd5b81600381111561072c577f4e487b7100000000000000000000000000000000000000000000000000000000600052602160045260246000fd5b1461076c576040517f08c379a0000000000000000000000000000000000000000000000000000000008152600401610763906129ef565b60405180910390fd5b600180600084815260200190815260200160002060050160146101000a81548160ff0219169083151502179055506001600760006101000a81548160ff0219169083151502179055506107c0878787611ada565b6000600760006101000a81548160ff0219169083151502179055508192505050949350505050565b6000600460003373ffffffffffffffffffffffffffffffffffffffff1673ffffffffffffffffffffffffffffffffffffffff16815260200190815260200160002060009054906101000a900473ffffffffffffffffffffffffffffffffffffffff1690505b600073ffffffffffffffffffffffffffffffffffffffff16600460008373ffffffffffffffffffffffffffffffffffffffff1673ffffffffffffffffffffffffffffffffffffffff16815260200190815260200160002060009054906101000a900473ffffffffffffffffffffffffffffffffffffffff1673ffffffffffffffffffffffffffffffffffffffff161461094757600460008273ffffffffffffffffffffffffffffffffffffffff1673ffffffffffffffffffffffffffffffffffffffff16815260200190815260200160002060009054906101000a900473ffffffffffffffffffffffffffffffffffffffff16905061084d565b600660003373ffffffffffffffffffffffffffffffffffffffff1673ffffffffffffffffffffffffffffffffffffffff16815260200190815260200160002054600560008373ffffffffffffffffffffffffffffffffffffffff1673ffffffffffffffffffffffffffffffffffffffff16815260200190815260200160002060008282546109d59190612e43565b92505081905550600660003373ffffffffffffffffffffffffffffffffffffffff1673ffffffffffffffffffffffffffffffffffffffff16815260200190815260200160002054600560003373ffffffffffffffffffffffffffffffffffffffff1673ffffffffffffffffffffffffffffffffffffffff1681526020019081526020016000206000828254610a6a9190612d62565b925050819055506000600660003373ffffffffffffffffffffffffffffffffffffffff1673ffffffffffffffffffffffffffffffffffffffff168152602001908152602001600020819055506000600460003373ffffffffffffffffffffffffffffffffffffffff1673ffffffffffffffffffffffffffffffffffffffff16815260200190815260200160002060006101000a81548173ffffffffffffffffffffffffffffffffffffffff021916908373ffffffffffffffffffffffffffffffffffffffff16021790555050565b60008060016000848152602001908152602001600020905080600201544211610b65576000915050610bcb565b80600401548160030154111580610b955750610b7f6105e9565b81600401548260030154610b939190612d62565b105b15610ba4576001915050610bcb565b8060050160149054906101000a900460ff1615610bc5576003915050610bcb565b60029150505b919050565b6000600560003373ffffffffffffffffffffffffffffffffffffffff1673ffffffffffffffffffffffffffffffffffffffff1681526020019081526020016000205411610c52576040517f08c379a0000000000000000000000000000000000000000000000000000000008152600401610c49906129cf565b60405180910390fd5b600360008273ffffffffffffffffffffffffffffffffffffffff1673ffffffffffffffffffffffffffffffffffffffff16815260200190815260200160002060009054906101000a900460ff16610cde576040517f08c379a0000000000000000000000000000000000000000000000000000000008152600401610cd59061298f565b60405180910390fd5b5b600073ffffffffffffffffffffffffffffffffffffffff16600460008373ffffffffffffffffffffffffffffffffffffffff1673ffffffffffffffffffffffffffffffffffffffff16815260200190815260200160002060009054906101000a900473ffffffffffffffffffffffffffffffffffffffff1673ffffffffffffffffffffffffffffffffffffffff1614610e4857600460008273ffffffffffffffffffffffffffffffffffffffff1673ffffffffffffffffffffffffffffffffffffffff16815260200190815260200160002060009054906101000a900473ffffffffffffffffffffffffffffffffffffffff1690503373ffffffffffffffffffffffffffffffffffffffff168173ffffffffffffffffffffffffffffffffffffffff161415610e43576040517f08c379a0000000000000000000000000000000000000000000000000000000008152600401610e3a906129af565b60405180910390fd5b610cdf565b80600460003373ffffffffffffffffffffffffffffffffffffffff1673ffffffffffffffffffffffffffffffffffffffff16815260200190815260200160002060006101000a81548173ffffffffffffffffffffffffffffffffffffffff021916908373ffffffffffffffffffffffffffffffffffffffff160217905550600560003373ffffffffffffffffffffffffffffffffffffffff1673ffffffffffffffffffffffffffffffffffffffff16815260200190815260200160002054600560008373ffffffffffffffffffffffffffffffffffffffff1673ffffffffffffffffffffffffffffffffffffffff1681526020019081526020016000206000828254610f549190612d62565b92505081905550600560003373ffffffffffffffffffffffffffffffffffffffff1673ffffffffffffffffffffffffffffffffffffffff16815260200190815260200160002054600660003373ffffffffffffffffffffffffffffffffffffffff1673ffffffffffffffffffffffffffffffffffffffff168152602001908152602001600020819055506000600560003373ffffffffffffffffffffffffffffffffffffffff1673ffffffffffffffffffffffffffffffffffffffff1681526020019081526020016000208190555050565b6000818154811061103657600080fd5b906000526020600020016000915054906101000a900473ffffffffffffffffffffffffffffffffffffffff1681565b600760019054906101000a900460ff16156110b5576040517f08c379a00000000000000000000000000000000000000000000000000000000081526004016110ac90612a0f565b60405180910390fd5b6001600760016101000a81548160ff021916908315150217905550600760009054906101000a900460ff1661111f576040517f08c379a000000000000000000000000000000000000000000000000000000000815260040161111690612a2f565b60405180910390fd5b60008473ffffffffffffffffffffffffffffffffffffffff1663449e815d85856040518363ffffffff1660e01b815260040161115c92919061286f565b602060405180830381600087803b15801561117657600080fd5b505af115801561118a573d6000803e3d6000fd5b505050506040513d601f19601f820116820180604052508101906111ae919061215e565b9050818111156111f3576040517f08c379a00000000000000000000000000000000000000000000000000000000081526004016111ea90612a6f565b60405180910390fd5b8473ffffffffffffffffffffffffffffffffffffffff1663cce7ec138286866040518463ffffffff1660e01b815260040161122f92919061286f565b6000604051808303818588803b15801561124857600080fd5b505af115801561125c573d6000803e3d6000fd5b5050505050506000600760016101000a81548160ff02191690831515021790555050505050565b6000600460008373ffffffffffffffffffffffffffffffffffffffff1673ffffffffffffffffffffffffffffffffffffffff16815260200190815260200160002060009054906101000a900473ffffffffffffffffffffffffffffffffffffffff169050919050565b600360003373ffffffffffffffffffffffffffffffffffffffff1673ffffffffffffffffffffffffffffffffffffffff16815260200190815260200160002060009054906101000a900460ff1615611379576040517f08c379a000000000000000000000000000000000000000000000000000000000815260040161137090612aaf565b60405180910390fd5b670de0b6b3a764000034146113c3576040517f08c379a00000000000000000000000000000000000000000000000000000000081526004016113ba90612a8f565b60405180910390fd5b6001600360003373ffffffffffffffffffffffffffffffffffffffff1673ffffffffffffffffffffffffffffffffffffffff16815260200190815260200160002060006101000a81548160ff0219169083151502179055506000339080600181540180825580915050600190039060005260206000200160009091909190916101000a81548173ffffffffffffffffffffffffffffffffffffffff021916908373ffffffffffffffffffffffffffffffffffffffff1602179055506001600560003373ffffffffffffffffffffffffffffffffffffffff1673ffffffffffffffffffffffffffffffffffffffff16815260200190815260200160002081905550565b6000600360003373ffffffffffffffffffffffffffffffffffffffff1673ffffffffffffffffffffffffffffffffffffffff16815260200190815260200160002060009054906101000a900460ff16611553576040517f08c379a000000000000000000000000000000000000000000000000000000000815260040161154a9061298f565b60405180910390fd5b6000611561868686866117a5565b905084518651146115a7576040517f08c379a000000000000000000000000000000000000000000000000000000000815260040161159e9061294f565b60405180910390fd5b84518651146115eb576040517f08c379a00000000000000000000000000000000000000000000000000000000081526004016115e29061294f565b60405180910390fd5b835186511461162f576040517f08c379a00000000000000000000000000000000000000000000000000000000081526004016116269061294f565b60405180910390fd5b600042905060006203f480826116459190612d62565b90506000600160008581526020019081526020016000209050838160000181905550828160010181905550818160020181905550338160050160006101000a81548173ffffffffffffffffffffffffffffffffffffffff021916908373ffffffffffffffffffffffffffffffffffffffff1602179055508060000154945050505050949350505050565b6203f48081565b6116de611cbf565b6002600083815260200190815260200160002060008473ffffffffffffffffffffffffffffffffffffffff1673ffffffffffffffffffffffffffffffffffffffff1681526020019081526020016000206040518060200160405290816000820160009054906101000a900460ff161515151581525050905092915050565b6000600560008373ffffffffffffffffffffffffffffffffffffffff1673ffffffffffffffffffffffffffffffffffffffff168152602001908152602001600020549050919050565b6000848484846040516020016117be9493929190612898565b6040516020818303038152906040528051906020012060001c9050949350505050565b6117e9611cd4565b600160008381526020019081526020016000206040518060e001604052908160008201548152602001600182015481526020016002820154815260200160038201548152602001600482015481526020016005820160009054906101000a900473ffffffffffffffffffffffffffffffffffffffff1673ffffffffffffffffffffffffffffffffffffffff1673ffffffffffffffffffffffffffffffffffffffff1681526020016005820160149054906101000a900460ff1615151515815250509050919050565b600060038111156118eb577f4e487b7100000000000000000000000000000000000000000000000000000000600052602160045260246000fd5b6118f483610b38565b600381111561192c577f4e487b7100000000000000000000000000000000000000000000000000000000600052602160045260246000fd5b1461196c576040517f08c379a00000000000000000000000000000000000000000000000000000000081526004016119639061292f565b60405180910390fd5b600060016000848152602001908152602001600020905060006002600085815260200190815260200160002060008673ffffffffffffffffffffffffffffffffffffffff1673ffffffffffffffffffffffffffffffffffffffff1681526020019081526020016000209050600015158160000160009054906101000a900460ff16151514611a2f576040517f08c379a0000000000000000000000000000000000000000000000000000000008152600401611a269061296f565b60405180910390fd5b6000600560008773ffffffffffffffffffffffffffffffffffffffff1673ffffffffffffffffffffffffffffffffffffffff1681526020019081526020016000205490508315611a995780836003016000828254611a8d9190612d62565b92505081905550611ab5565b80836004016000828254611aad9190612d62565b925050819055505b60018260000160006101000a81548160ff021916908315150217905550505050505050565b60006040518060400160405280600d81526020017f43414c4c5f524556455254454400000000000000000000000000000000000000815250905060005b8451811015611cb857600080868381518110611b5c577f4e487b7100000000000000000000000000000000000000000000000000000000600052603260045260246000fd5b602002602001015173ffffffffffffffffffffffffffffffffffffffff16868481518110611bb3577f4e487b7100000000000000000000000000000000000000000000000000000000600052603260045260246000fd5b6020026020010151868581518110611bf4577f4e487b7100000000000000000000000000000000000000000000000000000000600052603260045260246000fd5b6020026020010151604051611c09919061283d565b60006040518083038185875af1925050503d8060008114611c46576040519150601f19603f3d011682016040523d82523d6000602084013e611c4b565b606091505b509150915081611ca557600081511115611c685780518082602001fd5b836040517f08c379a0000000000000000000000000000000000000000000000000000000008152600401611c9c919061290d565b60405180910390fd5b505080611cb190612f42565b9050611b17565b5050505050565b60405180602001604052806000151581525090565b6040518060e001604052806000815260200160008152602001600081526020016000815260200160008152602001600073ffffffffffffffffffffffffffffffffffffffff1681526020016000151581525090565b6000611d3c611d3784612bc0565b612b8f565b90508083825260208201905082856020860282011115611d5b57600080fd5b60005b85811015611d8b5781611d718882611e9c565b845260208401935060208301925050600181019050611d5e565b5050509392505050565b6000611da8611da384612bec565b612b8f565b9050808382526020820190508260005b85811015611de85781358501611dce8882611f59565b845260208401935060208301925050600181019050611db8565b5050509392505050565b6000611e05611e0084612c18565b612b8f565b90508083825260208201905082856020860282011115611e2457600080fd5b60005b85811015611e545781611e3a8882611f98565b845260208401935060208301925050600181019050611e27565b5050509392505050565b6000611e71611e6c84612c44565b612b8f565b905082815260208101848484011115611e8957600080fd5b611e94848285612f00565b509392505050565b600081359050611eab8161306c565b92915050565b600082601f830112611ec257600080fd5b8135611ed2848260208601611d29565b91505092915050565b600082601f830112611eec57600080fd5b8135611efc848260208601611d95565b91505092915050565b600082601f830112611f1657600080fd5b8135611f26848260208601611df2565b91505092915050565b600081359050611f3e81613083565b92915050565b600081359050611f538161309a565b92915050565b600082601f830112611f6a57600080fd5b8135611f7a848260208601611e5e565b91505092915050565b600081359050611f92816130b1565b92915050565b600081359050611fa7816130c8565b92915050565b600081519050611fbc816130c8565b92915050565b600060208284031215611fd457600080fd5b6000611fe284828501611e9c565b91505092915050565b60008060408385031215611ffe57600080fd5b600061200c85828601611e9c565b925050602061201d85828601611f98565b9150509250929050565b6000806000806080858703121561203d57600080fd5b600085013567ffffffffffffffff81111561205757600080fd5b61206387828801611eb1565b945050602085013567ffffffffffffffff81111561208057600080fd5b61208c87828801611f05565b935050604085013567ffffffffffffffff8111156120a957600080fd5b6120b587828801611edb565b92505060606120c687828801611f44565b91505092959194509250565b600080600080608085870312156120e857600080fd5b60006120f687828801611f83565b945050602061210787828801611e9c565b935050604061211887828801611f98565b925050606061212987828801611f98565b91505092959194509250565b60006020828403121561214757600080fd5b600061215584828501611f98565b91505092915050565b60006020828403121561217057600080fd5b600061217e84828501611fad565b91505092915050565b6000806040838503121561219a57600080fd5b60006121a885828601611f98565b92505060206121b985828601611f2f565b9150509250929050565b60006121cf8383612207565b60208301905092915050565b60006121e78383612383565b905092915050565b60006121fb838361281f565b60208301905092915050565b61221081612e77565b82525050565b61221f81612e77565b82525050565b600061223082612ca4565b61223a8185612d02565b935061224583612c74565b8060005b8381101561227657815161225d88826121c3565b975061226883612cdb565b925050600181019050612249565b5085935050505092915050565b600061228e82612caf565b6122988185612d13565b9350836020820285016122aa85612c84565b8060005b858110156122e657848403895281516122c785826121db565b94506122d283612ce8565b925060208a019950506001810190506122ae565b50829750879550505050505092915050565b600061230382612cba565b61230d8185612d24565b935061231883612c94565b8060005b8381101561234957815161233088826121ef565b975061233b83612cf5565b92505060018101905061231c565b5085935050505092915050565b61235f81612e89565b82525050565b61236e81612e89565b82525050565b61237d81612e95565b82525050565b600061238e82612cc5565b6123988185612d35565b93506123a8818560208601612f0f565b6123b181613047565b840191505092915050565b60006123c782612cc5565b6123d18185612d46565b93506123e1818560208601612f0f565b80840191505092915050565b6123f681612eee565b82525050565b600061240782612cd0565b6124118185612d51565b9350612421818560208601612f0f565b61242a81613047565b840191505092915050565b6000612442600d83612d51565b91507f564f54494e475f434c4f534544000000000000000000000000000000000000006000830152602082019050919050565b6000612482601783612d51565b91507f494e56414c49445f50524f504f53414c5f4c454e4754480000000000000000006000830152602082019050919050565b60006124c2600d83612d51565b91507f414c52454144595f564f544544000000000000000000000000000000000000006000830152602082019050919050565b6000612502600c83612d51565b91507f4e4f545f415f4d454d42455200000000000000000000000000000000000000006000830152602082019050919050565b6000612542600a83612d51565b91507f4c4f4f505f464f554e44000000000000000000000000000000000000000000006000830152602082019050919050565b6000612582601983612d51565b91507f494e53554646494349454e545f564f54494e475f504f574552000000000000006000830152602082019050919050565b60006125c2601a83612d51565b91507f50524f504f53414c5f4841535f4e4f545f5355434345454445440000000000006000830152602082019050919050565b6000612602600e83612d51565b91507f4e6f2072652d656e7472616e63790000000000000000000000000000000000006000830152602082019050919050565b6000612642600d83612d51565b91507f4e4f545f455845435554494e47000000000000000000000000000000000000006000830152602082019050919050565b6000612682600f83612d51565b91507f4e4f5f564f54494e475f504f57455200000000000000000000000000000000006000830152602082019050919050565b60006126c2601383612d51565b91507f494e53554646494349454e545f414d4f554e54000000000000000000000000006000830152602082019050919050565b6000612702600983612d51565b91507f4f4e455f455448455200000000000000000000000000000000000000000000006000830152602082019050919050565b6000612742600e83612d51565b91507f414c52454144595f4d454d4245520000000000000000000000000000000000006000830152602082019050919050565b60e08201600082015161278b600085018261281f565b50602082015161279e602085018261281f565b5060408201516127b1604085018261281f565b5060608201516127c4606085018261281f565b5060808201516127d7608085018261281f565b5060a08201516127ea60a0850182612207565b5060c08201516127fd60c0850182612356565b50505050565b6020820160008201516128196000850182612356565b50505050565b61282881612ee4565b82525050565b61283781612ee4565b82525050565b600061284982846123bc565b915081905092915050565b60006020820190506128696000830184612216565b92915050565b60006040820190506128846000830185612216565b612891602083018461282e565b9392505050565b600060808201905081810360008301526128b28187612225565b905081810360208301526128c681866122f8565b905081810360408301526128da8185612283565b90506128e96060830184612374565b95945050505050565b600060208201905061290760008301846123ed565b92915050565b6000602082019050818103600083015261292781846123fc565b905092915050565b6000602082019050818103600083015261294881612435565b9050919050565b6000602082019050818103600083015261296881612475565b9050919050565b60006020820190508181036000830152612988816124b5565b9050919050565b600060208201905081810360008301526129a8816124f5565b9050919050565b600060208201905081810360008301526129c881612535565b9050919050565b600060208201905081810360008301526129e881612575565b9050919050565b60006020820190508181036000830152612a08816125b5565b9050919050565b60006020820190508181036000830152612a28816125f5565b9050919050565b60006020820190508181036000830152612a4881612635565b9050919050565b60006020820190508181036000830152612a6881612675565b9050919050565b60006020820190508181036000830152612a88816126b5565b9050919050565b60006020820190508181036000830152612aa8816126f5565b9050919050565b60006020820190508181036000830152612ac881612735565b9050919050565b600060e082019050612ae46000830184612775565b92915050565b6000602082019050612aff6000830184612803565b92915050565b6000602082019050612b1a600083018461282e565b92915050565b600060e082019050612b35600083018a61282e565b612b42602083018961282e565b612b4f604083018861282e565b612b5c606083018761282e565b612b69608083018661282e565b612b7660a0830185612216565b612b8360c0830184612365565b98975050505050505050565b6000604051905081810181811067ffffffffffffffff82111715612bb657612bb5613018565b5b8060405250919050565b600067ffffffffffffffff821115612bdb57612bda613018565b5b602082029050602081019050919050565b600067ffffffffffffffff821115612c0757612c06613018565b5b602082029050602081019050919050565b600067ffffffffffffffff821115612c3357612c32613018565b5b602082029050602081019050919050565b600067ffffffffffffffff821115612c5f57612c5e613018565b5b601f19601f8301169050602081019050919050565b6000819050602082019050919050565b6000819050602082019050919050565b6000819050602082019050919050565b600081519050919050565b600081519050919050565b600081519050919050565b600081519050919050565b600081519050919050565b6000602082019050919050565b6000602082019050919050565b6000602082019050919050565b600082825260208201905092915050565b600082825260208201905092915050565b600082825260208201905092915050565b600082825260208201905092915050565b600081905092915050565b600082825260208201905092915050565b6000612d6d82612ee4565b9150612d7883612ee4565b9250827fffffffffffffffffffffffffffffffffffffffffffffffffffffffffffffffff03821115612dad57612dac612f8b565b5b828201905092915050565b6000612dc382612ee4565b9150612dce83612ee4565b925082612dde57612ddd612fba565b5b828204905092915050565b6000612df482612ee4565b9150612dff83612ee4565b9250817fffffffffffffffffffffffffffffffffffffffffffffffffffffffffffffffff0483118215151615612e3857612e37612f8b565b5b828202905092915050565b6000612e4e82612ee4565b9150612e5983612ee4565b925082821015612e6c57612e6b612f8b565b5b828203905092915050565b6000612e8282612ec4565b9050919050565b60008115159050919050565b6000819050919050565b6000612eaa82612e77565b9050919050565b6000819050612ebf82613058565b919050565b600073ffffffffffffffffffffffffffffffffffffffff82169050919050565b6000819050919050565b6000612ef982612eb1565b9050919050565b82818337600083830152505050565b60005b83811015612f2d578082015181840152602081019050612f12565b83811115612f3c576000848401525b50505050565b6000612f4d82612ee4565b91507fffffffffffffffffffffffffffffffffffffffffffffffffffffffffffffffff821415612f8057612f7f612f8b565b5b600182019050919050565b7f4e487b7100000000000000000000000000000000000000000000000000000000600052601160045260246000fd5b7f4e487b7100000000000000000000000000000000000000000000000000000000600052601260045260246000fd5b7f4e487b7100000000000000000000000000000000000000000000000000000000600052602160045260246000fd5b7f4e487b7100000000000000000000000000000000000000000000000000000000600052604160045260246000fd5b6000601f19601f8301169050919050565b6004811061306957613068612fe9565b5b50565b61307581612e77565b811461308057600080fd5b50565b61308c81612e89565b811461309757600080fd5b50565b6130a381612e95565b81146130ae57600080fd5b50565b6130ba81612e9f565b81146130c557600080fd5b50565b6130d181612ee4565b81146130dc57600080fd5b5056fea2646970667358221220d5ced393aa37ea0a6742c5e94be2a67a2c603adc719b6ecce514f607e80a1c3964736f6c63430008000033",
  "linkReferences": {},
  "deployedLinkReferences": {}
}