{
  "_format": "hh-sol-artifact-1",
  "contractName": "NFTContract",
  "sourceName": "contracts/NFTContract.sol",
  "abi": [
    {
      "stateMutability": "payable",
      "type": "fallback"
    },
    {
      "inputs": [
        {
          "internalType": "address",
          "name": "_addr",
          "type": "address"
        },
        {
          "internalType": "uint256",
          "name": "_tokenId",
          "type": "uint256"
        }
      ],
      "name": "buy",
      "outputs": [],
      "stateMutability": "payable",
      "type": "function"
    },
    {
      "inputs": [
        {
          "internalType": "address",
          "name": "_addr",
          "type": "address"
        },
        {
          "internalType": "uint256",
          "name": "_tokenId",
          "type": "uint256"
        }
      ],
      "name": "getOwner",
      "outputs": [
        {
          "internalType": "address",
          "name": "",
          "type": "address"
        }
      ],
      "stateMutability": "view",
      "type": "function"
    },
    {
      "inputs": [
        {
          "internalType": "address",
          "name": "_addr",
          "type": "address"
        },
        {
          "internalType": "uint256",
          "name": "_tokenId",
          "type": "uint256"
        }
      ],
      "name": "getPrice",
      "outputs": [
        {
          "internalType": "uint256",
          "name": "",
          "type": "uint256"
        }
      ],
      "stateMutability": "view",
      "type": "function"
    },
    {
      "inputs": [
        {
          "internalType": "uint256",
          "name": "",
          "type": "uint256"
        }
      ],
      "name": "tokens",
      "outputs": [
        {
          "internalType": "address",
          "name": "",
          "type": "address"
        }
      ],
      "stateMutability": "view",
      "type": "function"
    },
    {
      "stateMutability": "payable",
      "type": "receive"
    }
  ],
  "bytecode": "0x6080604052671bc16d674ec8000060015534801561001c57600080fd5b506106128061002c6000396000f3fe6080604052600436106100435760003560e01c80632f634a901461004c578063449e815d146100895780634f64b2be146100c6578063cce7ec13146101035761004a565b3661004a57005b005b34801561005857600080fd5b50610073600480360381019061006e919061039e565b61011f565b604051610080919061049a565b60405180910390f35b34801561009557600080fd5b506100b060048036038101906100ab919061039e565b61015c565b6040516100bd91906104f7565b60405180910390f35b3480156100d257600080fd5b506100ed60048036038101906100e891906103da565b6101a7565b6040516100fa919061049a565b60405180910390f35b61011d6004803603810190610118919061039e565b6101da565b005b600080600083815260200190815260200160002060009054906101000a900473ffffffffffffffffffffffffffffffffffffffff16905092915050565b600061019c6040518060400160405280600881526020017f696e2070726963650000000000000000000000000000000000000000000000008152506102b2565b600154905092915050565b60006020528060005260406000206000915054906101000a900473ffffffffffffffffffffffffffffffffffffffff1681565b60015434101561021f576040517f08c379a0000000000000000000000000000000000000000000000000000000008152600401610216906104d7565b60405180910390fd5b61025d6040518060400160405280600b81526020017f696e2070727563686173650000000000000000000000000000000000000000008152506102b2565b3360008083815260200190815260200160002060006101000a81548173ffffffffffffffffffffffffffffffffffffffff021916908373ffffffffffffffffffffffffffffffffffffffff1602179055505050565b610348816040516024016102c691906104b5565b6040516020818303038152906040527f41304fac000000000000000000000000000000000000000000000000000000007bffffffffffffffffffffffffffffffffffffffffffffffffffffffff19166020820180517bffffffffffffffffffffffffffffffffffffffffffffffffffffffff838183161783525050505061034b565b50565b60008151905060006a636f6e736f6c652e6c6f679050602083016000808483855afa5050505050565b600081359050610383816105ae565b92915050565b600081359050610398816105c5565b92915050565b600080604083850312156103b157600080fd5b60006103bf85828601610374565b92505060206103d085828601610389565b9150509250929050565b6000602082840312156103ec57600080fd5b60006103fa84828501610389565b91505092915050565b61040c8161052e565b82525050565b600061041d82610512565b610427818561051d565b935061043781856020860161056a565b6104408161059d565b840191505092915050565b600061045860128361051d565b91507f494e53554646494349454e545f455448455200000000000000000000000000006000830152602082019050919050565b61049481610560565b82525050565b60006020820190506104af6000830184610403565b92915050565b600060208201905081810360008301526104cf8184610412565b905092915050565b600060208201905081810360008301526104f08161044b565b9050919050565b600060208201905061050c600083018461048b565b92915050565b600081519050919050565b600082825260208201905092915050565b600061053982610540565b9050919050565b600073ffffffffffffffffffffffffffffffffffffffff82169050919050565b6000819050919050565b60005b8381101561058857808201518184015260208101905061056d565b83811115610597576000848401525b50505050565b6000601f19601f8301169050919050565b6105b78161052e565b81146105c257600080fd5b50565b6105ce81610560565b81146105d957600080fd5b5056fea2646970667358221220bebb442155a4540f93c32594482fa3846f79f5cd7ea3342f9fb54e2819fdcd0b64736f6c63430008000033",
  "linkReferences": {},
  "deployedLinkReferences": {}
}